{
  "_format": "hh-sol-artifact-1",
  "contractName": "gasChallenge",
  "sourceName": "contracts/gasChallenge.sol",
  "abi": [
    {
      "inputs": [],
      "name": "getSumOfArray",
      "outputs": [
        {
          "internalType": "uint256",
          "name": "",
          "type": "uint256"
        }
      ],
      "stateMutability": "view",
      "type": "function"
    },
    {
      "inputs": [],
      "name": "notOptimizedFunction",
      "outputs": [],
      "stateMutability": "nonpayable",
      "type": "function"
    },
    {
      "inputs": [],
      "name": "optimizedFunction",
      "outputs": [],
      "stateMutability": "nonpayable",
      "type": "function"
    }
  ],
  "bytecode": "0x6080604052604051806101400160405280600160ff168152602001600260ff168152602001600360ff168152602001600460ff168152602001600560ff168152602001600660ff168152602001600760ff168152602001600860ff168152602001600960ff168152602001600a60ff16815250600090600a610082929190610095565b5034801561008f57600080fd5b506100f7565b82600a81019282156100c9579160200282015b828111156100c8578251829060ff169055916020019190600101906100a8565b5b5090506100d691906100da565b5090565b5b808211156100f35760008160009055506001016100db565b5090565b61031e806101066000396000f3fe608060405234801561001057600080fd5b50600436106100415760003560e01c806368b5f223146100465780637ce418941461005057806380d2c8031461005a575b600080fd5b61004e610078565b005b6100586100b4565b005b610062610109565b60405161006f91906101f3565b60405180910390f35b60005b600a8110156100b15760008082600a81106100995761009861020e565b5b018190555080806100a99061026c565b91505061007b565b50565b6100bc61015a565b60005b600a8110156100f35760008282600a81106100dd576100dc61020e565b5b60200201818152505080806001019150506100bf565b5080600090600a61010592919061017d565b5050565b6000806000905060005b600a81101561015257600081600a81106101305761012f61020e565b5b01548261013d91906102b4565b9150808061014a9061026c565b915050610113565b508091505090565b604051806101400160405280600a90602082028036833780820191505090505090565b82600a81019282156101ac579160200282015b828111156101ab578251825591602001919060010190610190565b5b5090506101b991906101bd565b5090565b5b808211156101d65760008160009055506001016101be565b5090565b6000819050919050565b6101ed816101da565b82525050565b600060208201905061020860008301846101e4565b92915050565b7f4e487b7100000000000000000000000000000000000000000000000000000000600052603260045260246000fd5b7f4e487b7100000000000000000000000000000000000000000000000000000000600052601160045260246000fd5b6000610277826101da565b91507fffffffffffffffffffffffffffffffffffffffffffffffffffffffffffffffff82036102a9576102a861023d565b5b600182019050919050565b60006102bf826101da565b91506102ca836101da565b92508282019050808211156102e2576102e161023d565b5b9291505056fea2646970667358221220625da04b1dc83fcf1d8ac8cd3aa9bf2ba67519cc19ba012912da7a7689e1e59564736f6c63430008120033",
  "linkReferences": {},
  "deployedLinkReferences": {}
}